{
  "_format": "hh-sol-artifact-1",
  "contractName": "Transactions",
  "sourceName": "contracts/Transactions.sol",
  "abi": [
    {
      "anonymous": false,
      "inputs": [
        {
          "indexed": true,
          "internalType": "address",
          "name": "previousOwner",
          "type": "address"
        },
        {
          "indexed": true,
          "internalType": "address",
          "name": "newOwner",
          "type": "address"
        }
      ],
      "name": "OwnershipTransferred",
      "type": "event"
    },
    {
      "anonymous": false,
      "inputs": [
        {
          "indexed": true,
          "internalType": "address",
          "name": "from",
          "type": "address"
        },
        {
          "indexed": true,
          "internalType": "address",
          "name": "receiver",
          "type": "address"
        },
        {
          "indexed": false,
          "internalType": "uint256",
          "name": "amount",
          "type": "uint256"
        },
        {
          "indexed": false,
          "internalType": "bytes",
          "name": "message",
          "type": "bytes"
        },
        {
          "indexed": false,
          "internalType": "uint256",
          "name": "timestamp",
          "type": "uint256"
        },
        {
          "indexed": false,
          "internalType": "bytes32",
          "name": "account",
          "type": "bytes32"
        },
        {
          "indexed": false,
          "internalType": "bytes32",
          "name": "keyword",
          "type": "bytes32"
        }
      ],
      "name": "Transfer",
      "type": "event"
    },
    {
      "inputs": [
        {
          "internalType": "address payable",
          "name": "receiver",
          "type": "address"
        },
        {
          "internalType": "uint256",
          "name": "amount",
          "type": "uint256"
        },
        {
          "internalType": "bytes",
          "name": "message",
          "type": "bytes"
        },
        {
          "internalType": "bytes32",
          "name": "keyword",
          "type": "bytes32"
        }
      ],
      "name": "addTransaction",
      "outputs": [
        {
          "internalType": "bool",
          "name": "",
          "type": "bool"
        }
      ],
      "stateMutability": "nonpayable",
      "type": "function"
    },
    {
      "inputs": [
        {
          "internalType": "uint256",
          "name": "page",
          "type": "uint256"
        }
      ],
      "name": "getTransactions",
      "outputs": [
        {
          "components": [
            {
              "internalType": "address",
              "name": "sender",
              "type": "address"
            },
            {
              "internalType": "address",
              "name": "receiver",
              "type": "address"
            },
            {
              "internalType": "uint256",
              "name": "amount",
              "type": "uint256"
            },
            {
              "internalType": "bytes",
              "name": "message",
              "type": "bytes"
            },
            {
              "internalType": "uint256",
              "name": "timestamp",
              "type": "uint256"
            },
            {
              "internalType": "bytes32",
              "name": "keyword",
              "type": "bytes32"
            }
          ],
          "internalType": "struct Transactions.TransferStruct[]",
          "name": "",
          "type": "tuple[]"
        }
      ],
      "stateMutability": "view",
      "type": "function"
    },
    {
      "inputs": [],
      "name": "getTransactionsCount",
      "outputs": [
        {
          "internalType": "uint256",
          "name": "",
          "type": "uint256"
        }
      ],
      "stateMutability": "view",
      "type": "function"
    },
    {
      "inputs": [],
      "name": "owner",
      "outputs": [
        {
          "internalType": "address",
          "name": "",
          "type": "address"
        }
      ],
      "stateMutability": "view",
      "type": "function"
    },
    {
      "inputs": [],
      "name": "renounceOwnership",
      "outputs": [],
      "stateMutability": "nonpayable",
      "type": "function"
    },
    {
      "inputs": [
        {
          "internalType": "address",
          "name": "newOwner",
          "type": "address"
        }
      ],
      "name": "transferOwnership",
      "outputs": [],
      "stateMutability": "nonpayable",
      "type": "function"
    }
  ],
  "bytecode": "0x608060405234801561001057600080fd5b5061002d61002261003260201b60201c565b61003a60201b60201c565b6100fe565b600033905090565b60008060009054906101000a900473ffffffffffffffffffffffffffffffffffffffff169050816000806101000a81548173ffffffffffffffffffffffffffffffffffffffff021916908373ffffffffffffffffffffffffffffffffffffffff1602179055508173ffffffffffffffffffffffffffffffffffffffff168173ffffffffffffffffffffffffffffffffffffffff167f8be0079c531659141344cd1fd0a4f28419497f9722a3daafe3b4186f6b6457e060405160405180910390a35050565b6113208061010d6000396000f3fe608060405234801561001057600080fd5b50600436106100625760003560e01c80632bcab3a9146100675780635742177c14610097578063578cb8f9146100c7578063715018a6146100e55780638da5cb5b146100ef578063f2fde38b1461010d575b600080fd5b610081600480360381019061007c9190610b75565b610129565b60405161008e9190610c13565b60405180910390f35b6100b160048036038101906100ac9190610c2e565b610324565b6040516100be9190610e6d565b60405180910390f35b6100cf6105cf565b6040516100dc9190610e9e565b60405180910390f35b6100ed6105d9565b005b6100f76105ed565b6040516101049190610ec8565b60405180910390f35b61012760048036038101906101229190610f0f565b610616565b005b600061013361069a565b6101486001805461071890919063ffffffff16565b60018190555060006040518060c001604052803373ffffffffffffffffffffffffffffffffffffffff1681526020018773ffffffffffffffffffffffffffffffffffffffff168152602001868152602001858152602001428152602001848152509050600281908060018154018082558091505060019003906000526020600020906006020160009091909190915060008201518160000160006101000a81548173ffffffffffffffffffffffffffffffffffffffff021916908373ffffffffffffffffffffffffffffffffffffffff16021790555060208201518160010160006101000a81548173ffffffffffffffffffffffffffffffffffffffff021916908373ffffffffffffffffffffffffffffffffffffffff16021790555060408201518160020155606082015181600301908051906020019061028b929190610849565b506080820151816004015560a0820151816005015550508573ffffffffffffffffffffffffffffffffffffffff163373ffffffffffffffffffffffffffffffffffffffff167f5686b3836ae40a336973d1e2ff78e4dcb17642c28bb7284cedf5edcfb31238188787426102fd3361072e565b8960405161030f959493929190610f95565b60405180910390a36001915050949350505050565b6060600061033c60148461075190919063ffffffff16565b90506000610367601461035960018761071890919063ffffffff16565b61075190919063ffffffff16565b905060028054905081111561037f5760028054905090505b6000610394838361076790919063ffffffff16565b67ffffffffffffffff8111156103ad576103ac610a14565b5b6040519080825280602002602001820160405280156103e657816020015b6103d36108cf565b8152602001906001900390816103cb5790505b50905060008390505b828110156105c3576002818154811061040b5761040a610fef565b5b90600052602060002090600602016040518060c00160405290816000820160009054906101000a900473ffffffffffffffffffffffffffffffffffffffff1673ffffffffffffffffffffffffffffffffffffffff1673ffffffffffffffffffffffffffffffffffffffff1681526020016001820160009054906101000a900473ffffffffffffffffffffffffffffffffffffffff1673ffffffffffffffffffffffffffffffffffffffff1673ffffffffffffffffffffffffffffffffffffffff168152602001600282015481526020016003820180546104ea9061104d565b80601f01602080910402602001604051908101604052809291908181526020018280546105169061104d565b80156105635780601f1061053857610100808354040283529160200191610563565b820191906000526020600020905b81548152906001019060200180831161054657829003601f168201915b505050505081526020016004820154815260200160058201548152505082610594868461076790919063ffffffff16565b815181106105a5576105a4610fef565b5b602002602001018190525080806105bb906110ae565b9150506103ef565b50809350505050919050565b6000600154905090565b6105e161069a565b6105eb600061077d565b565b60008060009054906101000a900473ffffffffffffffffffffffffffffffffffffffff16905090565b61061e61069a565b600073ffffffffffffffffffffffffffffffffffffffff168173ffffffffffffffffffffffffffffffffffffffff16141561068e576040517f08c379a00000000000000000000000000000000000000000000000000000000081526004016106859061117a565b60405180910390fd5b6106978161077d565b50565b6106a2610841565b73ffffffffffffffffffffffffffffffffffffffff166106c06105ed565b73ffffffffffffffffffffffffffffffffffffffff1614610716576040517f08c379a000000000000000000000000000000000000000000000000000000000815260040161070d906111e6565b60405180910390fd5b565b600081836107269190611206565b905092915050565b60008173ffffffffffffffffffffffffffffffffffffffff1660001b9050919050565b6000818361075f919061125c565b905092915050565b6000818361077591906112b6565b905092915050565b60008060009054906101000a900473ffffffffffffffffffffffffffffffffffffffff169050816000806101000a81548173ffffffffffffffffffffffffffffffffffffffff021916908373ffffffffffffffffffffffffffffffffffffffff1602179055508173ffffffffffffffffffffffffffffffffffffffff168173ffffffffffffffffffffffffffffffffffffffff167f8be0079c531659141344cd1fd0a4f28419497f9722a3daafe3b4186f6b6457e060405160405180910390a35050565b600033905090565b8280546108559061104d565b90600052602060002090601f01602090048101928261087757600085556108be565b82601f1061089057805160ff19168380011785556108be565b828001600101855582156108be579182015b828111156108bd5782518255916020019190600101906108a2565b5b5090506108cb9190610934565b5090565b6040518060c00160405280600073ffffffffffffffffffffffffffffffffffffffff168152602001600073ffffffffffffffffffffffffffffffffffffffff168152602001600081526020016060815260200160008152602001600080191681525090565b5b8082111561094d576000816000905550600101610935565b5090565b6000604051905090565b600080fd5b600080fd5b600073ffffffffffffffffffffffffffffffffffffffff82169050919050565b600061099082610965565b9050919050565b6109a081610985565b81146109ab57600080fd5b50565b6000813590506109bd81610997565b92915050565b6000819050919050565b6109d6816109c3565b81146109e157600080fd5b50565b6000813590506109f3816109cd565b92915050565b600080fd5b600080fd5b6000601f19601f8301169050919050565b7f4e487b7100000000000000000000000000000000000000000000000000000000600052604160045260246000fd5b610a4c82610a03565b810181811067ffffffffffffffff82111715610a6b57610a6a610a14565b5b80604052505050565b6000610a7e610951565b9050610a8a8282610a43565b919050565b600067ffffffffffffffff821115610aaa57610aa9610a14565b5b610ab382610a03565b9050602081019050919050565b82818337600083830152505050565b6000610ae2610add84610a8f565b610a74565b905082815260208101848484011115610afe57610afd6109fe565b5b610b09848285610ac0565b509392505050565b600082601f830112610b2657610b256109f9565b5b8135610b36848260208601610acf565b91505092915050565b6000819050919050565b610b5281610b3f565b8114610b5d57600080fd5b50565b600081359050610b6f81610b49565b92915050565b60008060008060808587031215610b8f57610b8e61095b565b5b6000610b9d878288016109ae565b9450506020610bae878288016109e4565b935050604085013567ffffffffffffffff811115610bcf57610bce610960565b5b610bdb87828801610b11565b9250506060610bec87828801610b60565b91505092959194509250565b60008115159050919050565b610c0d81610bf8565b82525050565b6000602082019050610c286000830184610c04565b92915050565b600060208284031215610c4457610c4361095b565b5b6000610c52848285016109e4565b91505092915050565b600081519050919050565b600082825260208201905092915050565b6000819050602082019050919050565b6000610c9282610965565b9050919050565b610ca281610c87565b82525050565b610cb1816109c3565b82525050565b600081519050919050565b600082825260208201905092915050565b60005b83811015610cf1578082015181840152602081019050610cd6565b83811115610d00576000848401525b50505050565b6000610d1182610cb7565b610d1b8185610cc2565b9350610d2b818560208601610cd3565b610d3481610a03565b840191505092915050565b610d4881610b3f565b82525050565b600060c083016000830151610d666000860182610c99565b506020830151610d796020860182610c99565b506040830151610d8c6040860182610ca8565b5060608301518482036060860152610da48282610d06565b9150506080830151610db96080860182610ca8565b5060a0830151610dcc60a0860182610d3f565b508091505092915050565b6000610de38383610d4e565b905092915050565b6000602082019050919050565b6000610e0382610c5b565b610e0d8185610c66565b935083602082028501610e1f85610c77565b8060005b85811015610e5b5784840389528151610e3c8582610dd7565b9450610e4783610deb565b925060208a01995050600181019050610e23565b50829750879550505050505092915050565b60006020820190508181036000830152610e878184610df8565b905092915050565b610e98816109c3565b82525050565b6000602082019050610eb36000830184610e8f565b92915050565b610ec281610c87565b82525050565b6000602082019050610edd6000830184610eb9565b92915050565b610eec81610c87565b8114610ef757600080fd5b50565b600081359050610f0981610ee3565b92915050565b600060208284031215610f2557610f2461095b565b5b6000610f3384828501610efa565b91505092915050565b600082825260208201905092915050565b6000610f5882610cb7565b610f628185610f3c565b9350610f72818560208601610cd3565b610f7b81610a03565b840191505092915050565b610f8f81610b3f565b82525050565b600060a082019050610faa6000830188610e8f565b8181036020830152610fbc8187610f4d565b9050610fcb6040830186610e8f565b610fd86060830185610f86565b610fe56080830184610f86565b9695505050505050565b7f4e487b7100000000000000000000000000000000000000000000000000000000600052603260045260246000fd5b7f4e487b7100000000000000000000000000000000000000000000000000000000600052602260045260246000fd5b6000600282049050600182168061106557607f821691505b602082108114156110795761107861101e565b5b50919050565b7f4e487b7100000000000000000000000000000000000000000000000000000000600052601160045260246000fd5b60006110b9826109c3565b91507fffffffffffffffffffffffffffffffffffffffffffffffffffffffffffffffff8214156110ec576110eb61107f565b5b600182019050919050565b600082825260208201905092915050565b7f4f776e61626c653a206e6577206f776e657220697320746865207a65726f206160008201527f6464726573730000000000000000000000000000000000000000000000000000602082015250565b60006111646026836110f7565b915061116f82611108565b604082019050919050565b6000602082019050818103600083015261119381611157565b9050919050565b7f4f776e61626c653a2063616c6c6572206973206e6f7420746865206f776e6572600082015250565b60006111d06020836110f7565b91506111db8261119a565b602082019050919050565b600060208201905081810360008301526111ff816111c3565b9050919050565b6000611211826109c3565b915061121c836109c3565b9250827fffffffffffffffffffffffffffffffffffffffffffffffffffffffffffffffff038211156112515761125061107f565b5b828201905092915050565b6000611267826109c3565b9150611272836109c3565b9250817fffffffffffffffffffffffffffffffffffffffffffffffffffffffffffffffff04831182151516156112ab576112aa61107f565b5b828202905092915050565b60006112c1826109c3565b91506112cc836109c3565b9250828210156112df576112de61107f565b5b82820390509291505056fea2646970667358221220d526dcb921195f07970ccd8437ce0a46abd6fdd4f33c2fc0fc6a07756187286364736f6c63430008090033",
  "linkReferences": {},
  "deployedLinkReferences": {}
}